:0200000036299F
:10000800A230831281000B118C08031D14280619D5
:10001800582801308C008D018E0101308F0058283E
:100028000C0B25288312061D232801309000073069
:100038000F02031C21288C01232802308C008F0A10
:1000480058280C08023A031D582883120619432819
:1000580001308C0001308F0019301002031840283D
:1000680003100D0D92000E0D930013088E00120A56
:100078008D0003198E0A432803108D0D8E0D333021
:100088001002031C57288C0103108D0D8E0D1E3095
:100098000E0593009201031D57281308183A031DF3
:1000A80057280D089100900A9408031D6D288312A3
:1000B8000612861295011108B03A031D6628013010
:1000C80094000B291108AA3A031D0B290330940048
:1000D8000B291408033A031DA42883120612861656
:1000E8001508543A031D7B28013094008928160806
:1000F8001704031D8528950AE830960003309700F9
:1001080089289603160A031997031108B43A031DA0
:100118008F2894010B291108B03A031D9628013045
:1001280094000B291108AC3A031D9D280230940055
:100138000B291108923A031D0B29043094000B294E
:100148001408023A031DD928831206168612950848
:10015800031DB0289401BE2816081704031DBA28E9
:100168009503E830960003309700BE289603160AD8
:10017800031997031108B43A031DC42894010B29E5
:100188001108B03A031DCB28013094000B2911083F
:10019800AA3A031DD228033094000B291108923A79
:1001A800031D0B29043094000B29140BED2883122E
:1001B80006168616543095001108B43A031DE62831
:1001C80094010B291108AC3A031D0B290230940045
:1001D8000B291408043A031D0B291108B43A031D0E
:1001E800F72894010B291108B03A031DFE280130A5
:1001F80094000B291108AA3A031D0529033094001D
:100208000B291108AC3A031D0B2902309400981CE5
:1002180010299901981025298312061816291818EB
:1002280018292429181824291810831206181814B4
:10023800061C22296330990098142529990125293B
:10024800990A1908150203183229023015071902EC
:1002580003183229831286148611352983128610D1
:10026800861509008C018D018E018F019001910185
:1002780094019501E8309600033097001810831216
:1002880006181814990198108601C530831686003F
:1002980088308100A230831281008B168B17532976
:00000001FF
